{
  "_format": "hh-sol-artifact-1",
  "contractName": "GovernanceToken",
  "sourceName": "contracts/GovernanceToken.sol",
  "abi": [
    {
      "inputs": [],
      "stateMutability": "nonpayable",
      "type": "constructor"
    },
    {
      "anonymous": false,
      "inputs": [
        {
          "indexed": true,
          "internalType": "address",
          "name": "owner",
          "type": "address"
        },
        {
          "indexed": true,
          "internalType": "address",
          "name": "spender",
          "type": "address"
        },
        {
          "indexed": false,
          "internalType": "uint256",
          "name": "value",
          "type": "uint256"
        }
      ],
      "name": "Approval",
      "type": "event"
    },
    {
      "anonymous": false,
      "inputs": [
        {
          "indexed": true,
          "internalType": "address",
          "name": "from",
          "type": "address"
        },
        {
          "indexed": true,
          "internalType": "address",
          "name": "to",
          "type": "address"
        },
        {
          "indexed": false,
          "internalType": "uint256",
          "name": "value",
          "type": "uint256"
        }
      ],
      "name": "Transfer",
      "type": "event"
    },
    {
      "inputs": [
        {
          "internalType": "address",
          "name": "owner",
          "type": "address"
        },
        {
          "internalType": "address",
          "name": "spender",
          "type": "address"
        }
      ],
      "name": "allowance",
      "outputs": [
        {
          "internalType": "uint256",
          "name": "",
          "type": "uint256"
        }
      ],
      "stateMutability": "view",
      "type": "function"
    },
    {
      "inputs": [
        {
          "internalType": "address",
          "name": "spender",
          "type": "address"
        },
        {
          "internalType": "uint256",
          "name": "amount",
          "type": "uint256"
        }
      ],
      "name": "approve",
      "outputs": [
        {
          "internalType": "bool",
          "name": "",
          "type": "bool"
        }
      ],
      "stateMutability": "nonpayable",
      "type": "function"
    },
    {
      "inputs": [
        {
          "internalType": "address",
          "name": "account",
          "type": "address"
        }
      ],
      "name": "balanceOf",
      "outputs": [
        {
          "internalType": "uint256",
          "name": "",
          "type": "uint256"
        }
      ],
      "stateMutability": "view",
      "type": "function"
    },
    {
      "inputs": [],
      "name": "decimals",
      "outputs": [
        {
          "internalType": "uint8",
          "name": "",
          "type": "uint8"
        }
      ],
      "stateMutability": "view",
      "type": "function"
    },
    {
      "inputs": [
        {
          "internalType": "address",
          "name": "spender",
          "type": "address"
        },
        {
          "internalType": "uint256",
          "name": "subtractedValue",
          "type": "uint256"
        }
      ],
      "name": "decreaseAllowance",
      "outputs": [
        {
          "internalType": "bool",
          "name": "",
          "type": "bool"
        }
      ],
      "stateMutability": "nonpayable",
      "type": "function"
    },
    {
      "inputs": [
        {
          "internalType": "address",
          "name": "spender",
          "type": "address"
        },
        {
          "internalType": "uint256",
          "name": "addedValue",
          "type": "uint256"
        }
      ],
      "name": "increaseAllowance",
      "outputs": [
        {
          "internalType": "bool",
          "name": "",
          "type": "bool"
        }
      ],
      "stateMutability": "nonpayable",
      "type": "function"
    },
    {
      "inputs": [],
      "name": "name",
      "outputs": [
        {
          "internalType": "string",
          "name": "",
          "type": "string"
        }
      ],
      "stateMutability": "view",
      "type": "function"
    },
    {
      "inputs": [],
      "name": "s_maxSupply",
      "outputs": [
        {
          "internalType": "uint256",
          "name": "",
          "type": "uint256"
        }
      ],
      "stateMutability": "view",
      "type": "function"
    },
    {
      "inputs": [],
      "name": "symbol",
      "outputs": [
        {
          "internalType": "string",
          "name": "",
          "type": "string"
        }
      ],
      "stateMutability": "view",
      "type": "function"
    },
    {
      "inputs": [],
      "name": "totalSupply",
      "outputs": [
        {
          "internalType": "uint256",
          "name": "",
          "type": "uint256"
        }
      ],
      "stateMutability": "view",
      "type": "function"
    },
    {
      "inputs": [
        {
          "internalType": "address",
          "name": "to",
          "type": "address"
        },
        {
          "internalType": "uint256",
          "name": "amount",
          "type": "uint256"
        }
      ],
      "name": "transfer",
      "outputs": [
        {
          "internalType": "bool",
          "name": "",
          "type": "bool"
        }
      ],
      "stateMutability": "nonpayable",
      "type": "function"
    },
    {
      "inputs": [
        {
          "internalType": "address",
          "name": "from",
          "type": "address"
        },
        {
          "internalType": "address",
          "name": "to",
          "type": "address"
        },
        {
          "internalType": "uint256",
          "name": "amount",
          "type": "uint256"
        }
      ],
      "name": "transferFrom",
      "outputs": [
        {
          "internalType": "bool",
          "name": "",
          "type": "bool"
        }
      ],
      "stateMutability": "nonpayable",
      "type": "function"
    }
  ],
  "bytecode": "0x608060405269d3c21bcecceda10000006005553480156200001f57600080fd5b506040518060400160405280600f81526020017f476f7665726e616e6365546f6b656e00000000000000000000000000000000008152506040518060400160405280600281526020017f47540000000000000000000000000000000000000000000000000000000000008152508160039080519060200190620000a49291906200025d565b508060049080519060200190620000bd9291906200025d565b505050620000d433600554620000da60201b60201c565b620004b9565b600073ffffffffffffffffffffffffffffffffffffffff168273ffffffffffffffffffffffffffffffffffffffff1614156200014d576040517f08c379a000000000000000000000000000000000000000000000000000000000815260040162000144906200036e565b60405180910390fd5b62000161600083836200025360201b60201c565b8060026000828254620001759190620003c9565b92505081905550806000808473ffffffffffffffffffffffffffffffffffffffff1673ffffffffffffffffffffffffffffffffffffffff1681526020019081526020016000206000828254620001cc9190620003c9565b925050819055508173ffffffffffffffffffffffffffffffffffffffff16600073ffffffffffffffffffffffffffffffffffffffff167fddf252ad1be2c89b69c2b068fc378daa952ba7f163c4a11628f55a4df523b3ef8360405162000233919062000437565b60405180910390a36200024f600083836200025860201b60201c565b5050565b505050565b505050565b8280546200026b9062000483565b90600052602060002090601f0160209004810192826200028f5760008555620002db565b82601f10620002aa57805160ff1916838001178555620002db565b82800160010185558215620002db579182015b82811115620002da578251825591602001919060010190620002bd565b5b509050620002ea9190620002ee565b5090565b5b8082111562000309576000816000905550600101620002ef565b5090565b600082825260208201905092915050565b7f45524332303a206d696e7420746f20746865207a65726f206164647265737300600082015250565b600062000356601f836200030d565b915062000363826200031e565b602082019050919050565b60006020820190508181036000830152620003898162000347565b9050919050565b6000819050919050565b7f4e487b7100000000000000000000000000000000000000000000000000000000600052601160045260246000fd5b6000620003d68262000390565b9150620003e38362000390565b9250827fffffffffffffffffffffffffffffffffffffffffffffffffffffffffffffffff038211156200041b576200041a6200039a565b5b828201905092915050565b620004318162000390565b82525050565b60006020820190506200044e600083018462000426565b92915050565b7f4e487b7100000000000000000000000000000000000000000000000000000000600052602260045260246000fd5b600060028204905060018216806200049c57607f821691505b60208210811415620004b357620004b262000454565b5b50919050565b61129780620004c96000396000f3fe608060405234801561001057600080fd5b50600436106100b45760003560e01c80635d641847116100715780635d641847146101a357806370a08231146101c157806395d89b41146101f1578063a457c2d71461020f578063a9059cbb1461023f578063dd62ed3e1461026f576100b4565b806306fdde03146100b9578063095ea7b3146100d757806318160ddd1461010757806323b872dd14610125578063313ce567146101555780633950935114610173575b600080fd5b6100c161029f565b6040516100ce9190610b51565b60405180910390f35b6100f160048036038101906100ec9190610c0c565b610331565b6040516100fe9190610c67565b60405180910390f35b61010f610354565b60405161011c9190610c91565b60405180910390f35b61013f600480360381019061013a9190610cac565b61035e565b60405161014c9190610c67565b60405180910390f35b61015d61038d565b60405161016a9190610d1b565b60405180910390f35b61018d60048036038101906101889190610c0c565b610396565b60405161019a9190610c67565b60405180910390f35b6101ab6103cd565b6040516101b89190610c91565b60405180910390f35b6101db60048036038101906101d69190610d36565b6103d3565b6040516101e89190610c91565b60405180910390f35b6101f961041b565b6040516102069190610b51565b60405180910390f35b61022960048036038101906102249190610c0c565b6104ad565b6040516102369190610c67565b60405180910390f35b61025960048036038101906102549190610c0c565b610524565b6040516102669190610c67565b60405180910390f35b61028960048036038101906102849190610d63565b610547565b6040516102969190610c91565b60405180910390f35b6060600380546102ae90610dd2565b80601f01602080910402602001604051908101604052809291908181526020018280546102da90610dd2565b80156103275780601f106102fc57610100808354040283529160200191610327565b820191906000526020600020905b81548152906001019060200180831161030a57829003601f168201915b5050505050905090565b60008061033c6105ce565b90506103498185856105d6565b600191505092915050565b6000600254905090565b6000806103696105ce565b90506103768582856107a1565b61038185858561082d565b60019150509392505050565b60006012905090565b6000806103a16105ce565b90506103c28185856103b38589610547565b6103bd9190610e33565b6105d6565b600191505092915050565b60055481565b60008060008373ffffffffffffffffffffffffffffffffffffffff1673ffffffffffffffffffffffffffffffffffffffff168152602001908152602001600020549050919050565b60606004805461042a90610dd2565b80601f016020809104026020016040519081016040528092919081815260200182805461045690610dd2565b80156104a35780601f10610478576101008083540402835291602001916104a3565b820191906000526020600020905b81548152906001019060200180831161048657829003601f168201915b5050505050905090565b6000806104b86105ce565b905060006104c68286610547565b90508381101561050b576040517f08c379a000000000000000000000000000000000000000000000000000000000815260040161050290610efb565b60405180910390fd5b61051882868684036105d6565b60019250505092915050565b60008061052f6105ce565b905061053c81858561082d565b600191505092915050565b6000600160008473ffffffffffffffffffffffffffffffffffffffff1673ffffffffffffffffffffffffffffffffffffffff16815260200190815260200160002060008373ffffffffffffffffffffffffffffffffffffffff1673ffffffffffffffffffffffffffffffffffffffff16815260200190815260200160002054905092915050565b600033905090565b600073ffffffffffffffffffffffffffffffffffffffff168373ffffffffffffffffffffffffffffffffffffffff161415610646576040517f08c379a000000000000000000000000000000000000000000000000000000000815260040161063d90610f8d565b60405180910390fd5b600073ffffffffffffffffffffffffffffffffffffffff168273ffffffffffffffffffffffffffffffffffffffff1614156106b6576040517f08c379a00000000000000000000000000000000000000000000000000000000081526004016106ad9061101f565b60405180910390fd5b80600160008573ffffffffffffffffffffffffffffffffffffffff1673ffffffffffffffffffffffffffffffffffffffff16815260200190815260200160002060008473ffffffffffffffffffffffffffffffffffffffff1673ffffffffffffffffffffffffffffffffffffffff168152602001908152602001600020819055508173ffffffffffffffffffffffffffffffffffffffff168373ffffffffffffffffffffffffffffffffffffffff167f8c5be1e5ebec7d5bd14f71427d1e84f3dd0314c0f7b2291e5b200ac8c7c3b925836040516107949190610c91565b60405180910390a3505050565b60006107ad8484610547565b90507fffffffffffffffffffffffffffffffffffffffffffffffffffffffffffffffff81146108275781811015610819576040517f08c379a00000000000000000000000000000000000000000000000000000000081526004016108109061108b565b60405180910390fd5b61082684848484036105d6565b5b50505050565b600073ffffffffffffffffffffffffffffffffffffffff168373ffffffffffffffffffffffffffffffffffffffff16141561089d576040517f08c379a00000000000000000000000000000000000000000000000000000000081526004016108949061111d565b60405180910390fd5b600073ffffffffffffffffffffffffffffffffffffffff168273ffffffffffffffffffffffffffffffffffffffff16141561090d576040517f08c379a0000000000000000000000000000000000000000000000000000000008152600401610904906111af565b60405180910390fd5b610918838383610aae565b60008060008573ffffffffffffffffffffffffffffffffffffffff1673ffffffffffffffffffffffffffffffffffffffff1681526020019081526020016000205490508181101561099e576040517f08c379a000000000000000000000000000000000000000000000000000000000815260040161099590611241565b60405180910390fd5b8181036000808673ffffffffffffffffffffffffffffffffffffffff1673ffffffffffffffffffffffffffffffffffffffff16815260200190815260200160002081905550816000808573ffffffffffffffffffffffffffffffffffffffff1673ffffffffffffffffffffffffffffffffffffffff1681526020019081526020016000206000828254610a319190610e33565b925050819055508273ffffffffffffffffffffffffffffffffffffffff168473ffffffffffffffffffffffffffffffffffffffff167fddf252ad1be2c89b69c2b068fc378daa952ba7f163c4a11628f55a4df523b3ef84604051610a959190610c91565b60405180910390a3610aa8848484610ab3565b50505050565b505050565b505050565b600081519050919050565b600082825260208201905092915050565b60005b83811015610af2578082015181840152602081019050610ad7565b83811115610b01576000848401525b50505050565b6000601f19601f8301169050919050565b6000610b2382610ab8565b610b2d8185610ac3565b9350610b3d818560208601610ad4565b610b4681610b07565b840191505092915050565b60006020820190508181036000830152610b6b8184610b18565b905092915050565b600080fd5b600073ffffffffffffffffffffffffffffffffffffffff82169050919050565b6000610ba382610b78565b9050919050565b610bb381610b98565b8114610bbe57600080fd5b50565b600081359050610bd081610baa565b92915050565b6000819050919050565b610be981610bd6565b8114610bf457600080fd5b50565b600081359050610c0681610be0565b92915050565b60008060408385031215610c2357610c22610b73565b5b6000610c3185828601610bc1565b9250506020610c4285828601610bf7565b9150509250929050565b60008115159050919050565b610c6181610c4c565b82525050565b6000602082019050610c7c6000830184610c58565b92915050565b610c8b81610bd6565b82525050565b6000602082019050610ca66000830184610c82565b92915050565b600080600060608486031215610cc557610cc4610b73565b5b6000610cd386828701610bc1565b9350506020610ce486828701610bc1565b9250506040610cf586828701610bf7565b9150509250925092565b600060ff82169050919050565b610d1581610cff565b82525050565b6000602082019050610d306000830184610d0c565b92915050565b600060208284031215610d4c57610d4b610b73565b5b6000610d5a84828501610bc1565b91505092915050565b60008060408385031215610d7a57610d79610b73565b5b6000610d8885828601610bc1565b9250506020610d9985828601610bc1565b9150509250929050565b7f4e487b7100000000000000000000000000000000000000000000000000000000600052602260045260246000fd5b60006002820490506001821680610dea57607f821691505b60208210811415610dfe57610dfd610da3565b5b50919050565b7f4e487b7100000000000000000000000000000000000000000000000000000000600052601160045260246000fd5b6000610e3e82610bd6565b9150610e4983610bd6565b9250827fffffffffffffffffffffffffffffffffffffffffffffffffffffffffffffffff03821115610e7e57610e7d610e04565b5b828201905092915050565b7f45524332303a2064656372656173656420616c6c6f77616e63652062656c6f7760008201527f207a65726f000000000000000000000000000000000000000000000000000000602082015250565b6000610ee5602583610ac3565b9150610ef082610e89565b604082019050919050565b60006020820190508181036000830152610f1481610ed8565b9050919050565b7f45524332303a20617070726f76652066726f6d20746865207a65726f2061646460008201527f7265737300000000000000000000000000000000000000000000000000000000602082015250565b6000610f77602483610ac3565b9150610f8282610f1b565b604082019050919050565b60006020820190508181036000830152610fa681610f6a565b9050919050565b7f45524332303a20617070726f766520746f20746865207a65726f20616464726560008201527f7373000000000000000000000000000000000000000000000000000000000000602082015250565b6000611009602283610ac3565b915061101482610fad565b604082019050919050565b6000602082019050818103600083015261103881610ffc565b9050919050565b7f45524332303a20696e73756666696369656e7420616c6c6f77616e6365000000600082015250565b6000611075601d83610ac3565b91506110808261103f565b602082019050919050565b600060208201905081810360008301526110a481611068565b9050919050565b7f45524332303a207472616e736665722066726f6d20746865207a65726f20616460008201527f6472657373000000000000000000000000000000000000000000000000000000602082015250565b6000611107602583610ac3565b9150611112826110ab565b604082019050919050565b60006020820190508181036000830152611136816110fa565b9050919050565b7f45524332303a207472616e7366657220746f20746865207a65726f206164647260008201527f6573730000000000000000000000000000000000000000000000000000000000602082015250565b6000611199602383610ac3565b91506111a48261113d565b604082019050919050565b600060208201905081810360008301526111c88161118c565b9050919050565b7f45524332303a207472616e7366657220616d6f756e742065786365656473206260008201527f616c616e63650000000000000000000000000000000000000000000000000000602082015250565b600061122b602683610ac3565b9150611236826111cf565b604082019050919050565b6000602082019050818103600083015261125a8161121e565b905091905056fea2646970667358221220d3121db23e986d7023dccb92051dc212eecfe9fcd1878a4bbe0b9747e733a0ea64736f6c63430008080033",
  "linkReferences": {},
  "deployedLinkReferences": {}
}